:100000000C942B010C9448010C9448010C94480169
:100010000C9448010C9448010C9448010C9448013C
:100020000C9448010C9448010C9448010C9448012C
:100030000C9448010C9448010C9448010C9448011C
:100040000C9448010C9448010C9460010C948E01AE
:100050000C9448010C9448010C9448010C944801FC
:100060000C9448010C944801F002F202F402F602EA
:10007000F802FF020603000000000000005F00001D
:100080000007000700147F147F14242A7F2A1223FC
:100090001308646236495522500005030000001C15
:1000A0002241000041221C0014083E081408083EAA
:1000B00008080050300000080808080800606000C8
:1000C0000020100804023E5149453E00427F400096
:1000D00042615149462141454B311814127F102786
:1000E000454545393C4A49493001710905033649BE
:1000F000494936064949291E003636000000563661
:100100000000081422410014141414140041221495
:10011000080201510906324979413E7E1111117ED2
:100120007F494949363E414141227F4141221C7F5E
:10013000494949417F090909013E4149497A7F08F6
:1001400008087F00417F41002040413F017F0814A3
:1001500022417F404040407F020C027F7F04081014
:100160007F3E4141413E7F090909063E4151215EE2
:100170007F09192946464949493101017F01013F5B
:100180004040403F1F2040201F3F4038403F631405
:1001900008146307087008076151494543007F410F
:1001A000410002040810200041417F0004020102C6
:1001B0000440404040400001020400205454547860
:1001C0007F484444383844444420384444487F38C5
:1001D00054545418087E0901020C5252523E7F08B2
:1001E00004047800447D40002040443D007F1028F6
:1001F000440000417F40007C041804787C0804041B
:100200007838444444387C14141408081414187CB6
:100210007C080404084854545420043F4440203CC3
:100220004040207C1C2040201C3C4030403C442866
:100230001028440C5050503C4464544C4400083640
:10024000410000007F00000041360800100808103F
:1002500008000000000011241FBECFEFD8E0DEBF71
:10026000CDBF11E0A0E0B1E0E0E2FEE002C0059009
:100270000D92AC31B107D9F723E0ACE1B1E001C098
:100280001D92AB35B207E1F70E94AA040C940E0749
:100290000C9400000F931F93F801841768F0962FB9
:1002A000921B621720F4882311F0945C8150841B08
:1002B0008083918381E001C080E01F910F910895B8
:1002C0001F920F920FB60F9211242F938F939F932B
:1002D000EF93FF938091C0009091C6008C71E091E4
:1002E0001E01EF5FEF7120911D01E21739F0E093DD
:1002F0001E01F0E0EF5DFE4F908301C082E090911F
:100300001C01892B80931C01FF91EF919F918F918C
:100310002F910F900FBE0F901F9018951F920F9264
:100320000FB60F9211248F939F93EF93FF939091A9
:10033000200180911F01981769F0E0911F01EF5F84
:10034000EF71E0931F01F0E0EF5BFE4F808180933F
:10035000C60005C08091C1008F7D8093C100FF91D0
:10036000EF919F918F910F900FBE0F901F90189556
:100370001092200110921F0110921E0110921D0177
:1003800097FF03C022E02093C00090789093C500AF
:100390008093C40088E98093C10086E08093C20006
:1003A000089590911E0180911D019817A9F09091D8
:1003B0001D019F5F9F71E92FF0E0EF5DFE4F2081EF
:1003C00080911C0190931D0110921C0190E0982FC8
:1003D0008827820F911D089580E091E00895909103
:1003E00020019F5F9F7120911F019217E1F3E92F78
:1003F000F0E0EF5BFE4F8083909320018091C1007D
:1004000080628093C1000895CF93DF93EC018991BE
:10041000882319F00E94EF01FACFDF91CF91089560
:10042000CF93DF93FC018491EF012196882321F083
:100430000E94EF01FE01F7CFDF91CF91089587B1C0
:100440008F7C87B988B1806388B9E9EBF0E080815F
:100450008C7F808388E98093B800089594EA909314
:10046000BC009091BC0097FFFCCF8093BB0084E858
:100470008093BC008091BC0087FFFCCF9091B900B5
:10048000987F983119F081E0903409F480E0089564
:100490008093BB0084E88093BC008091BC0087FF00
:1004A000FCCF089584EC8093BC008091BC0087FF52
:1004B000FCCF8091BB00089584E88093BC008091BC
:1004C000BC0087FFFCCF8091BB00089584E9809336
:1004D000BC000895811131C06330F9F050F46623F7
:1004E00079F0613039F585B58B7F85BD85B5826042
:1004F0000FC0653041F06630E9F485B5846013C003
:1005000085B58B7F10C085B5846085BD85B58D7F31
:1005100085BD85B58E7F85BD089585B58B7F85BDED
:1005200085B5826003C085BD85B58D7F85BD85B5E8
:100530008160F1CF85B58B7FE8CF813009F044C071
:100540006330D1F068F4662399F0613069F58091E9
:1005500081008B7F809381008091810082602CC01C
:10056000653099F0663001F580918100846011C09A
:10057000809181008B7F0DC0809181008B7F809363
:10058000810080918100826009C080918100846037
:100590000EC080938100809181008D7F80938100C7
:1005A0008091810081600DC0809181008B7F80935C
:1005B0008100809181008D7F8093810080918100F6
:1005C0008E7F809381000895862F90E0873091057B
:1005D00048F5FC01EC5CFF4F8091B1000C94A9053B
:1005E0008B7F07C08B7F0CC08B7F11C084601DC0C8
:1005F00084608093B1008091B1008D7F0DC08460D4
:100600008093B1008091B100826014C084608093B7
:10061000B1008091B10082608093B1008091B100FF
:1006200081600DC08091B1008B7F8093B10080917B
:10063000B1008D7F8093B1008091B1008E7F809357
:10064000B100089581110CC080916E00662321F0E5
:10065000613011F4816001C08E7F80936E00089537
:10066000813061F480916F00662321F0613011F4D4
:10067000816001C08E7F80936F000895809170002B
:10068000662321F0613011F4816001C08E7F809378
:10069000700008952998662311F02B9A01C02B98B9
:1006A00027E030E090E0AC01022E02C0559547955E
:1006B0000A94E2F740FF02C02C9A01C02C982D9AB0
:1006C0002D982150310978F7299A089560E00C940B
:1006D0004A03CF93DF93219A229A239A249A259A48
:1006E0002A9A299A8FE39CE90197F1F700C000004C
:1006F0002A989FEF2AE683E0915020408040E1F75E
:1007000000C000002A9A299881E20E94660383E1D2
:100710000E94660386E00E94660382EC0E946603E4
:1007200080E20E94660389E00E94660380E80E94DE
:10073000660380E40E946603C8EFD1E061E080E0D8
:100740000E944A032197D1F788E00E9466038CE05B
:10075000DF91CF910C94660380E80E94660380E4E9
:100760000E9466031092590310925A03E1E6F1E0E9
:10077000119283E0E935F807D9F70895811102C095
:1007800084E201C080E20C946603962F96959695BC
:100790009695E82FF0E084E5989FE00DF11D112477
:1007A000EF59FE4F677081E090E001C0880F6A95B5
:1007B000EAF7442319F09081892B03C0809590813A
:1007C000892380830895BF92CF92DF92EF92FF92A8
:1007D0000F931F93CF93DF93D62E95E0699FE0018F
:1007E000112497E0699F80011124B12C082E000C80
:1007F000990B809725E0289F7001299FF00C112408
:100800008B2D90E08C179D0754F5C12C8C2D90E01A
:100810008017910714F58B2D6D2D0E949D05F70112
:10082000E80FF11DEA58FF4FE491F0E08C2D0E9493
:100830009D0502C0F595E7958A95E2F760915A0308
:10084000809159036C0DE0FF02C041E001C040E01F
:100850008B0D0E94C503C394D9CFB394D1CF80919F
:10086000590391E0980F8D2D880F880F8D0D890FFA
:10087000843518F4809359030BC01092590380916A
:100880005A038F5F97E0D99E800D112480935A03FD
:1008900080915A03803320F01092590310925A032A
:1008A000DF91CF911F910F91FF90EF90DF90CF904C
:1008B000BF9008951F93CF93DF93162FEC0189917A
:1008C000882321F0612F0E94E303F9CFDF91CF91BC
:1008D0001F9108958093590360935A030895CF930D
:1008E000DF9380E80E94660380E40E946603C1E60D
:1008F000D1E061E089910E944A0383E0C935D807BD
:10090000C1F7DF91CF910895529A4C9A08958AE0E9
:100910008A95F1F700C05A9A85E38A95F1F70000AD
:100920005A9860E070E0CB0120E04C9B06C06F5FFE
:100930007F4F8F4F9F4F21E0F8CF2223A9F30E94D2
:10094000DE0527EE3AE34DE05CE30E9444060E9498
:10095000AF050895CF93DF93CDB7DEB765970FB698
:10096000F894DEBF0FBECDBF0E9469030E94AC03A6
:1009700061E080E091E00E945A040E946F040E94AE
:100980001F020E94840419821A821B821C821D820B
:100990001E82F12CE12CDD24D3942FEF81EE94E024
:1009A000215080409040E1F700C000000E94870481
:1009B0002B013C014AE0BE01675F7F4FC2010E94EC
:1009C000D90680ED0E942E0280E00E9448020E941B
:1009D000660281ED0E942E020E945C02182F882E72
:1009E000912CA12CB12C0E946602812F8F7094E073
:1009F000B694A794979487949A95D1F72AE0829E0B
:100A0000800D11248B3339F0811107C0DD2029F0CE
:100A1000E394D12C02C0DD24D3949BE04916510409
:100A20006104710408F072C021E0F21619F1F216A7
:100A300090F092E0F91661F123E0F21264C08E01A9
:100A40000C5E1F4F2E814D81682F8E2D0E944A0112
:100A50001C898D892AC0E9828A834AE0BE016F5EC3
:100A60007F4F90E00E94D9064AE0BE01625F7F4F4F
:100A70008E2D27C08E010C5E1F4F2A814981682F61
:100A80008E2D0E944A011C891B838D898C830DC089
:100A90008E010C5E1F4F2C814B81682F8E2D0E9482
:100AA0004A011C891D838D898E834AE0BE016F5ED9
:100AB0007F4F90E00E94D9064AE0BE01625F7F4FFF
:100AC000812F90E00E94D9066EE180E00E946A04C6
:100AD00061E08FE091E00E945A046EE180E00E94A4
:100AE0006A0461E0CE010E960E945A0461E087E13B
:100AF00091E00E945A0461E0CE0141960E945A049E
:100B00000E946F0418C083E08F15A8F464E180E0B0
:100B10000E946A0461E08FE091E00E945A0464E15F
:100B200080E00E946A0461E0CE0109960E945A04A6
:100B30000E946F0432CFF394E9CF991B79E004C08F
:100B4000991F961708F0961B881F7A95C9F780950C
:100B50000895EE0FFF1F0590F491E02D09940E9477
:100B6000230688F09F5798F0B92F9927B751B0F016
:100B7000E1F0660F771F881F991F1AF0BA95C9F721
:100B800014C0B13091F00E943D06B1E008950C947C
:100B90003D06672F782F8827B85F39F0B93FCCF32F
:100BA000869577956795B395D9F73EF4909580959E
:100BB000709561957F4F8F4F9F4F0895E89409C0BE
:100BC00097FB3EF490958095709561957F4F8F4F80
:100BD0009F4F9923A9F0F92F96E9BB279395F69596
:100BE000879577956795B795F111F8CFFAF4BB0F14
:100BF00011F460FF1BC06F5F7F4F8F4F9F4F16C078
:100C0000882311F096E911C0772321F09EE8872F01
:100C1000762F05C0662371F096E8862F70E060E0BD
:100C20002AF09A95660F771F881FDAF7880F969536
:100C3000879597F9089557FD9058440F551F59F01F
:100C40005F3F71F04795880F97FB991F61F09F3FB9
:100C500079F087950895121613061406551FF2CFE2
:100C60004695F1DF08C0161617061806991FF1CF32
:100C700086957105610508940895E894BB27662759
:100C80007727CB0197F908950E9457060C94C80660
:100C90000E94BA0638F00E94C10620F0952311F098
:100CA0000C94B1060C94B70611240C943E060E94D5
:100CB0001B0670F3959FC1F3950F50E0551F629F7F
:100CC000F001729FBB27F00DB11D639FAA27F00DA5
:100CD000B11DAA1F649F6627B00DA11D661F829FCC
:100CE0002227B00DA11D621F739FB00DA11D621FB1
:100CF000839FA00D611D221F749F3327A00D611DCE
:100D0000231F849F600D211D822F762F6A2F1124AF
:100D10009F5750409AF0F1F088234AF0EE0FFF1FE2
:100D2000BB1F661F771F881F91505040A9F79E3F39
:100D3000510580F00C94B1060C943E065F3FE4F33D
:100D4000983ED4F3869577956795B795F795E7958F
:100D50009F5FC1F7FE2B880F911D9695879597F998
:100D6000089597F99F6780E870E060E008959FEF2D
:100D700080EC089500240A94161617061806090632
:100D8000089500240A941216130614060506089501
:100D9000092E0394000C11F4882352F0BB0F40F489
:100DA000BF2B11F460FF04C06F5F7F4F8F4F9F4FC9
:100DB0000895BB274A3031F4992322F4BDE290957F
:100DC00081959F4F0C94E506BB27FB015527AA2769
:100DD000880F991FAA1FA41710F0A41B83955051C8
:100DE000B9F7A05DAA3308F0A95DA193009779F740
:100DF000B111B1931192CB010C94FE06DC01FC0100
:100E0000672F71917723E1F7329704C07C916D933E
:100E100070836291AE17BF07C8F30895F894FFCFAF
:100E2000567A64616C656E6F73745B636D5D0020F0
:0C0E300020202020202000203A2000007C
:00000001FF
