:100000000C942B010C9448010C9448010C94480169
:100010000C9448010C9448010C9448010C9448013C
:100020000C9448010C9448010C9448010C9448012C
:100030000C9448010C9448010C9448010C9448011C
:100040000C9448010C9448010C944A010C947801DA
:100050000C9448010C9448010C9448010C944801FC
:100060000C9448010C9448018F029102930295026E
:1000700097029E02A502000000000000005F000041
:100080000007000700147F147F14242A7F2A1223FC
:100090001308646236495522500005030000001C15
:1000A0002241000041221C0014083E081408083EAA
:1000B00008080050300000080808080800606000C8
:1000C0000020100804023E5149453E00427F400096
:1000D00042615149462141454B311814127F102786
:1000E000454545393C4A49493001710905033649BE
:1000F000494936064949291E003636000000563661
:100100000000081422410014141414140041221495
:10011000080201510906324979413E7E1111117ED2
:100120007F494949363E414141227F4141221C7F5E
:10013000494949417F090909013E4149497A7F08F6
:1001400008087F00417F41002040413F017F0814A3
:1001500022417F404040407F020C027F7F04081014
:100160007F3E4141413E7F090909063E4151215EE2
:100170007F09192946464949493101017F01013F5B
:100180004040403F1F2040201F3F4038403F631405
:1001900008146307087008076151494543007F410F
:1001A000410002040810200041417F0004020102C6
:1001B0000440404040400001020400205454547860
:1001C0007F484444383844444420384444487F38C5
:1001D00054545418087E0901020C5252523E7F08B2
:1001E00004047800447D40002040443D007F1028F6
:1001F000440000417F40007C041804787C0804041B
:100200007838444444387C14141408081414187CB6
:100210007C080404084854545420043F4440203CC3
:100220004040207C1C2040201C3C4030403C442866
:100230001028440C5050503C4464544C4400083640
:10024000410000007F00000041360800100808103F
:1002500008000000000011241FBECFEFD8E0DEBF71
:10026000CDBF11E0A0E0B1E0E0EFFBE002C00590FF
:100270000D92A831B107D9F723E0A8E1B1E001C0A0
:100280001D92A735B207E1F70E9449040C94F605C8
:100290000C9400001F920F920FB60F9211242F930F
:1002A0008F939F93EF93FF938091C0009091C6002E
:1002B0008C71E0911A01EF5FEF7120911901E21743
:1002C00039F0E0931A01F0E0E35EFE4F908301C045
:1002D00082E090911801892B80931801FF91EF9192
:1002E0009F918F912F910F900FBE0F901F90189597
:1002F0001F920F920FB60F9211248F939F93EF933B
:10030000FF9390911C0180911B01981769F0E09177
:100310001B01EF5FEF71E0931B01F0E0E35CFE4F28
:1003200080818093C60005C08091C1008F7D80933D
:10033000C100FF91EF919F918F910F900FBE0F9091
:100340001F90189510921C0110921B0110921A0117
:100350001092190197FF03C022E02093C00090780B
:100360009093C5008093C40088E98093C10086E023
:100370008093C200089590911A01809119019817F5
:10038000A9F0909119019F5F9F71E92FF0E0E35E62
:10039000FE4F20818091180190931901109218014D
:1003A00090E0982F8827820F911D089580E091E0BA
:1003B000089590911C019F5F9F7120911B019217DE
:1003C000E1F3E92FF0E0E35CFE4F808390931C01A2
:1003D0008091C10080628093C1000895CF93DF9324
:1003E000EC018991882319F00E94D901FACFDF919D
:1003F000CF910895CF93DF93FC018491EF01219673
:10040000882321F00E94D901FE01F7CFDF91CF911F
:100410000895811131C06330F9F050F4662379F00A
:10042000613039F585B58B7F85BD85B582600FC09C
:10043000653041F06630E9F485B5846013C085B558
:100440008B7F10C085B5846085BD85B58D7F85BDEA
:1004500085B58E7F85BD089585B58B7F85BD85B5B6
:10046000826003C085BD85B58D7F85BD85B5816002
:10047000F1CF85B58B7FE8CF813009F044C0633080
:10048000D1F068F4662399F0613069F580918100BC
:100490008B7F809381008091810082602CC06530C9
:1004A00099F0663001F580918100846011C08091DF
:1004B00081008B7F0DC0809181008B7F80938100B4
:1004C00080918100826009C08091810084600EC0AB
:1004D00080938100809181008D7F80938100809145
:1004E000810081600DC0809181008B7F80938100AD
:1004F000809181008D7F80938100809181008E7F2B
:10050000809381000895862F90E08730910548F50B
:10051000FC01EC5CFF4F8091B1000C9491048B7F47
:1005200007C08B7F0CC08B7F11C084601DC08460AE
:100530008093B1008091B1008D7F0DC08460809365
:10054000B1008091B100826014C084608093B100DA
:100550008091B10082608093B1008091B100816090
:100560000DC08091B1008B7F8093B1008091B1006C
:100570008D7F8093B1008091B1008E7F8093B10018
:10058000089581110CC080916E00662321F06130C6
:1005900011F4816001C08E7F80936E0008958130D8
:1005A00061F480916F00662321F0613011F4816065
:1005B00001C08E7F80936F00089580917000662344
:1005C00021F0613011F4816001C08E7F8093700052
:1005D00008952998662311F02B9A01C02B9827E0E3
:1005E00030E090E0AC01022E02C0559547950A9488
:1005F000E2F740FF02C02C9A01C02C982D9A2D984A
:100600002150310978F7299A089560E00C94E902A5
:10061000CF93DF93219A229A239A249A259A2A9A91
:10062000299A8FE39CE90197F1F700C000002A980E
:100630009FEF2AE683E0915020408040E1F700C020
:1006400000002A9A299881E20E94050383E10E9412
:10065000050386E00E94050382EC0E94050380E208
:100660000E94050389E00E94050380E80E940503BB
:1006700080E40E940503C8EFD1E061E080E00E94C1
:10068000E9022197D1F788E00E9405038CE0DF9111
:10069000CF910C94050380E80E94050380E40E943A
:1006A00005031092550310925603EDE5F1E0119207
:1006B00083E0E535F807D9F70895811102C084E297
:1006C00001C080E20C940503962F96959695969519
:1006D000E82FF0E084E5989FE00DF11D1124E35A26
:1006E000FE4F677081E090E001C0880F6A95EAF7DD
:1006F000442319F09081892B03C080959081892330
:1007000080830895BF92CF92DF92EF92FF920F9372
:100710001F93CF93DF93D62E95E0699FE0011124BC
:1007200097E0699F80011124B12C082E000C990BD1
:10073000809725E0289F7001299FF00C11248B2DB4
:1007400090E08C179D0754F5C12C8C2D90E08017FC
:10075000910714F58B2D6D2D0E948504F701E80F8C
:10076000F11DEA58FF4FE491F0E08C2D0E948504C2
:1007700002C0F595E7958A95E2F76091560380915E
:1007800055036C0DE0FF02C041E001C040E08B0D5D
:100790000E946403C394D9CFB394D1CF8091550301
:1007A00091E0980F8D2D880F880F8D0D890F84355E
:1007B00018F4809355030BC0109255038091560393
:1007C0008F5F97E0D99E800D11248093560380910E
:1007D0005603803320F01092550310925603DF9198
:1007E000CF911F910F91FF90EF90DF90CF90BF902E
:1007F00008951F93CF93DF93162FEC0189918823DF
:1008000021F0612F0E948203F9CFDF91CF911F91D8
:10081000089580935503609356030895CF93DF9313
:1008200080E80E94050380E40E940503CDE5D1E045
:1008300061E089910E94E90283E0C535D807C1F7DC
:10084000DF91CF910895529A4C9A08958AE08A9543
:10085000F1F700C05A9A85E38A95F1F700005A989B
:1008600060E070E0CB0120E04C9B06C06F5F7F4FE3
:100870008F4F9F4F21E0F8CF2223A9F30E94C60497
:1008800027EE3AE34DE05CE30E942C050E949704BA
:100890000895CF93DF9300D000D01F92CDB7DEB77D
:1008A0000E9408030E944B0361E080E091E00E94F7
:1008B000F9030E940E040E9423042FEF81EE94E0BE
:1008C000215080409040E1F700C000000E942604C3
:1008D000DC01CB014AE0BE016F5F7F4F0E94C10582
:1008E00064E180E00E94090463E08FE091E00E94EF
:1008F000F90364E180E00E94090463E0CE010196FF
:100900000E94F9030E940E04D8CF991B79E004C01D
:10091000991F961708F0961B881F7A95C9F780953E
:100920000895EE0FFF1F0590F491E02D09940E94A9
:100930000B0588F09F5798F0B92F9927B751B0F061
:10094000E1F0660F771F881F991F1AF0BA95C9F753
:1009500014C0B13091F00E942505B1E008950C94C7
:100960002505672F782F8827B85F39F0B93FCCF37A
:10097000869577956795B395D9F73EF490958095D0
:10098000709561957F4F8F4F9F4F0895E89409C0F0
:1009900097FB3EF490958095709561957F4F8F4FB2
:1009A0009F4F9923A9F0F92F96E9BB279395F695C8
:1009B000879577956795B795F111F8CFFAF4BB0F46
:1009C00011F460FF1BC06F5F7F4F8F4F9F4F16C0AA
:1009D000882311F096E911C0772321F09EE8872F34
:1009E000762F05C0662371F096E8862F70E060E0F0
:1009F0002AF09A95660F771F881FDAF7880F969569
:100A0000879597F9089557FD9058440F551F59F051
:100A10005F3F71F04795880F97FB991F61F09F3FEB
:100A200079F087950895121613061406551FF2CF14
:100A30004695F1DF08C0161617061806991FF1CF64
:100A400086957105610508940895E894BB2766278B
:100A50007727CB0197F908950E943F050C94B005C4
:100A60000E94A20538F00E94A90520F0952311F0FC
:100A70000C9499050C949F0511240C9426050E9452
:100A8000030570F3959FC1F3950F50E0551F629FCA
:100A9000F001729FBB27F00DB11D639FAA27F00DD7
:100AA000B11DAA1F649F6627B00DA11D661F829FFE
:100AB0002227B00DA11D621F739FB00DA11D621FE3
:100AC000839FA00D611D221F749F3327A00D611D00
:100AD000231F849F600D211D822F762F6A2F1124E2
:100AE0009F5750409AF0F1F088234AF0EE0FFF1F15
:100AF000BB1F661F771F881F91505040A9F79E3F6C
:100B0000510580F00C9499050C9426055F3FE4F3A1
:100B1000983ED4F3869577956795B795F795E795C1
:100B20009F5FC1F7FE2B880F911D9695879597F9CA
:100B3000089597F99F6780E870E060E008959FEF5F
:100B400080EC089500240A94161617061806090664
:100B5000089500240A941216130614060506089533
:100B6000092E0394000C11F4882352F0BB0F40F4BB
:100B7000BF2B11F460FF04C06F5F7F4F8F4F9F4FFB
:100B80000895BB274A3031F4992322F4BDE29095B1
:100B900081959F4F0C94CD05BB27FB015527AA27B4
:100BA000880F991FAA1FA41710F0A41B83955051FA
:100BB000B9F7A05DAA3308F0A95DA193009779F772
:100BC000B111B1931192CB010C94E605DC01FC014B
:100BD000672F71917723E1F7329704C07C916D9371
:100BE00070836291AE17BF07C8F30895F894FFCFE2
:100BF000567A64616C656E6F73745B636D5D002023
:080C000020202020202000002C
:00000001FF
