:100000000C942B010C9448010C9448010C94480169
:100010000C9448010C9448010C9448010C9448013C
:100020000C9448010C9448010C9448010C9448012C
:100030000C9448010C9448010C9448010C9448011C
:100040000C9448010C9448010C946E020C949C0290
:100050000C9448010C9448010C9448010C944801FC
:100060000C9448010C944801460448044A044C048A
:100070004E0455045C04000000000000005F000016
:100080000007000700147F147F14242A7F2A1223FC
:100090001308646236495522500005030000001C15
:1000A0002241000041221C0014083E081408083EAA
:1000B00008080050300000080808080800606000C8
:1000C0000020100804023E5149453E00427F400096
:1000D00042615149462141454B311814127F102786
:1000E000454545393C4A49493001710905033649BE
:1000F000494936064949291E003636000000563661
:100100000000081422410014141414140041221495
:10011000080201510906324979413E7E1111117ED2
:100120007F494949363E414141227F4141221C7F5E
:10013000494949417F090909013E4149497A7F08F6
:1001400008087F00417F41002040413F017F0814A3
:1001500022417F404040407F020C027F7F04081014
:100160007F3E4141413E7F090909063E4151215EE2
:100170007F09192946464949493101017F01013F5B
:100180004040403F1F2040201F3F4038403F631405
:1001900008146307087008076151494543007F410F
:1001A000410002040810200041417F0004020102C6
:1001B0000440404040400001020400205454547860
:1001C0007F484444383844444420384444487F38C5
:1001D00054545418087E0901020C5252523E7F08B2
:1001E00004047800447D40002040443D007F1028F6
:1001F000440000417F40007C041804787C0804041B
:100200007838444444387C14141408081414187CB6
:100210007C080404084854545420043F4440203CC3
:100220004040207C1C2040201C3C4030403C442866
:100230001028440C5050503C4464544C4400083640
:10024000410000007F00000041360800100808103F
:1002500008000000000011241FBECFEFD8E0DEBF71
:10026000CDBF11E0A0E0B1E0E6E7F0E102C005900B
:100270000D92A431B107D9F723E0A4E1B1E001C0A8
:100280001D92A335B207E1F70E9400060C943908CD
:100290000C9400000F931F93F801841768F0962FB9
:1002A000921B621720F4882311F0945C8150841B08
:1002B0008083918381E001C080E01F910F910895B8
:1002C000CF92DF92EF92FF920F931F93CF93DF9322
:1002D000CDB7DEB72B970FB6F894DEBF0FBECDBFFC
:1002E000C82ED42E822F902F41112DC0F7012083CC
:1002F00001834AE0BE016F5F7F4F802F90E00E9434
:100300000408F70180814AE0BE016C5F7F4F90E0F6
:100310000E94040860E08EE10E94C005F1E0CF1267
:1003200003C06AE080E005C082E0C81209C06AE04C
:1003300080E30E94C00561E080E091E00E94B0058A
:100340000E94C505BCC0461708F0B9C08E01065F03
:100350001F4FF70121814081692F0E944A010D2D15
:1003600010E0C801880F991FE80EF91E8A85F70171
:1003700080838B8581834AE0BE016F5F7F4F90E071
:100380000E940408F70180814AE0BE016C5F7F4F44
:1003900090E00E9404084AE0BE01695F7F4FC801F7
:1003A0000E940408F3E0FD1510F484E001C080E031
:1003B00091E0C91234C00F5F1F4FE82EF12CE4E02A
:1003C000DE1224C06AE080E00E94C00561E08BE09C
:1003D00091E00E94B00564E180E00E94C00561E008
:1003E0008BE091E00E94B0056EE180E00E94C005C4
:1003F00061E08BE091E00E94B00568E280E00E943D
:10040000C00561E08BE091E00E94B0050E191F0964
:10041000000F602F660F660F600F80E036C0F2E0BD
:10042000CF128ECF0F5F1F4FE82EF12C84E0D81231
:1004300024C06AE080E30E94C00561E08AE091E0A8
:100440000E94B00564E180E30E94C00561E08AE09B
:1004500091E00E94B0056EE180E30E94C00561E07A
:100460008AE091E00E94B00568E280E30E94C00546
:1004700061E08AE091E00E94B0050E191F09000FAB
:10048000602F660F660F600F80E30E94C00561E079
:10049000CE0107960E94B00561E086E091E00E94DF
:1004A000B00561E0CE0104960E94B00561E088E0ED
:1004B00091E00E94B00561E0CE0101963FCF2B96FE
:1004C0000FB6F894DEBF0FBECDBFDF91CF911F9165
:1004D0000F91FF90EF90DF90CF9008951F920F92B1
:1004E0000FB60F9211242F938F939F93EF93FF9347
:1004F0008091C0009091C6008C71E0911601EF5F71
:10050000EF7120911501E21739F0E0931601F0E048
:10051000E75EFE4F908301C082E090911401892B29
:1005200080931401FF91EF919F918F912F910F90E4
:100530000FBE0F901F9018951F920F920FB60F923B
:1005400011248F939F93EF93FF93909118018091C3
:100550001701981769F0E0911701EF5FEF71E093D1
:100560001701F0E0E75CFE4F80818093C60005C074
:100570008091C1008F7D8093C100FF91EF919F9189
:100580008F910F900FBE0F901F9018951092180129
:1005900010921701109216011092150197FF03C0D7
:1005A00022E02093C00090789093C5008093C4000F
:1005B00088E98093C10086E08093C20008959091FD
:1005C0001601809115019817A9F0909115019F5F70
:1005D0009F71E92FF0E0E75EFE4F208180911401CA
:1005E000909315011092140190E0982F8827820FA4
:1005F000911D089580E091E00895909118019F5F0A
:100600009F71209117019217E1F3E92FF0E0E75C69
:10061000FE4F8083909318018091C1008062809387
:10062000C1000895CF93DF93EC018991882319F0DD
:100630000E94FD02FACFDF91CF910895CF93DF930F
:10064000FC018491EF012196882321F00E94FD0294
:10065000FE01F7CFDF91CF91089587B18F7C87B9E5
:1006600088B1806388B9E9EBF0E080818C7F80837A
:1006700088E98093B800089594EA9093BC00909123
:10068000BC0097FFFCCF8093BB0084E88093BC0044
:100690008091BC0087FFFCCF9091B900987F983182
:1006A00019F081E0903409F480E008958093BB0054
:1006B00084E88093BC008091BC0087FFFCCF089544
:1006C00084EC8093BC008091BC0087FFFCCF8091BC
:1006D000BB00089584E88093BC008091BC0087FF34
:1006E000FCCF8091BB00089584E98093BC000895FD
:1006F000FC01408121E030E001C0220F6A95EAF759
:10070000242B20830895FC01408121E030E001C0CA
:10071000220F6A95EAF7242720830895FC0180813F
:1007200021E030E001C0220F6A95EAF7413011F470
:10073000282B02C02095282320830895FC01429194
:1007400021E030E001C0220F6A95EAF72095342FAE
:1007500032233083FC013081232320830895FC0160
:10076000429121E030E001C0220F6A95EAF7322F72
:10077000309534233083FC013081232B208308956E
:10078000811131C06330F9F050F4662379F06130A3
:1007900039F585B58B7F85BD85B582600FC0653025
:1007A00041F06630E9F485B5846013C085B58B7F70
:1007B00010C085B5846085BD85B58D7F85BD85B547
:1007C0008E7F85BD089585B58B7F85BD85B582609B
:1007D00003C085BD85B58D7F85BD85B58160F1CFB1
:1007E00085B58B7FE8CF813009F044C06330D1F00C
:1007F00068F4662399F0613069F5809181008B7F00
:10080000809381008091810082602CC0653099F0D6
:10081000663001F580918100846011C08091810073
:100820008B7F0DC0809181008B7F809381008091B0
:100830008100826009C08091810084600EC0809335
:100840008100809181008D7F809381008091810063
:1008500081600DC0809181008B7F809381008091A9
:1008600081008D7F80938100809181008E7F8093B5
:1008700081000895862F90E08730910548F5FC01AE
:10088000EC5CFF4F8091B1000C94D4068B7F07C0C5
:100890008B7F0CC08B7F11C084601DC084608093EF
:1008A000B1008091B1008D7F0DC084608093B10054
:1008B0008091B100826014C084608093B100809107
:1008C000B10082608093B1008091B10081600DC061
:1008D0008091B1008B7F8093B1008091B1008D7FBA
:1008E0008093B1008091B1008E7F8093B100089514
:1008F00081110CC080916E00662321F0613011F4EB
:10090000816001C08E7F80936E000895813061F414
:1009100080916F00662321F0613011F4816001C085
:100920008E7F80936F00089580917000662321F080
:10093000613011F4816001C08E7F80937000089552
:100940002998662311F02B9A01C02B9827E030E0FC
:1009500090E0AC01022E02C0559547950A94E2F74B
:1009600040FF02C02C9A01C02C982D9A2D9821503E
:10097000310978F7299A089560E00C94A004CF9388
:10098000DF93219A229A239A249A259A2A9A299ABD
:100990008FE39CE90197F1F700C000002A989FEFD0
:1009A0002AE683E0915020408040E1F700C000003B
:1009B0002A9A299881E20E94BC0483E10E94BC0427
:1009C00086E00E94BC0482EC0E94BC0480E20E948B
:1009D000BC0489E00E94BC0480E80E94BC0480E45E
:1009E0000E94BC04C8EFD1E061E080E00E94A00456
:1009F0002197D1F788E00E94BC048CE0DF91CF9171
:100A00000C94BC0480E80E94BC0480E40E94BC04F6
:100A10001092510310925203E9E5F1E0119283E044
:100A2000E135F807D9F70895811102C084E201C0C9
:100A300080E20C94BC04962F969596959695E82F97
:100A4000F0E084E5989FE00DF11D1124E75AFE4F78
:100A5000677081E090E001C0880F6A95EAF744234F
:100A600019F09081892B03C0809590818923808320
:100A70000895BF92CF92DF92EF92FF920F931F9350
:100A8000CF93DF93D62E95E0699FE001112497E084
:100A9000699F80011124B12C082E000C990B8097BE
:100AA00025E0289F7001299FF00C11248B2D90E0E8
:100AB0008C179D0754F5C12C8C2D90E08017910761
:100AC00014F58B2D6D2D0E94C806F701E80FF11D5E
:100AD000EA58FF4FE491F0E08C2D0E94C80602C056
:100AE000F595E7958A95E2F760915203809151035D
:100AF0006C0DE0FF02C041E001C040E08B0D0E94A0
:100B00001B05C394D9CFB394D1CF8091510391E009
:100B1000980F8D2D880F880F8D0D890F843518F44F
:100B2000809351030BC010925103809152038F5F49
:100B300097E0D99E800D1124809352038091520337
:100B4000803320F01092510310925203DF91CF9125
:100B50001F910F91FF90EF90DF90CF90BF9008957D
:100B60001F93CF93DF93162FEC018991882321F0F7
:100B7000612F0E943905F9CFDF91CF911F91089520
:100B800080935103609352030895CF93DF9380E8DD
:100B90000E94BC0480E40E94BC04C9E5D1E061E08D
:100BA00089910E94A00483E0C135D807C1F7DF9185
:100BB000CF910895529A4C9A08958AE08A95F1F758
:100BC00000C05A9A85E38A95F1F700005A9860E0D0
:100BD00070E0CB0120E04C9B06C06F5F7F4F8F4FD2
:100BE0009F4F21E0F8CF2223A9F30E94090727EEA7
:100BF0003AE34DE05CE30E946F070E94DA06089535
:100C0000CF93DF93CDB7DEB7AA970FB6F894DEBFC8
:100C10000FBECDBF0E94BF040E9402050E942D039B
:100C20000E94DA05FE017196DE0111966E0121E245
:100C3000C20ED11CEFA3F8A7A9A7BAA710821C92D5
:100C4000118211961C92119732961296EC15FD05A1
:100C5000A9F7612C712C10E081E08EA39FEF21EEAB
:100C600084E0915020408040E1F700C000000E94E5
:100C7000DD054B015C014AE0B601C4010E94040895
:100C800080ED0E943C0380E00E9456030E947403A2
:100C900081ED0E943C030E946A03082F282E312C0C
:100CA000412C512C0E9474030F70D201C10124E029
:100CB000B695A795979587952A95D1F7502E2AE056
:100CC000829F500C11248BE3581641F0511008C03C
:100CD0009EA1992329F01F5F1EA202C021E02EA32E
:100CE00089E088169104A104B104B0F4EFA0F8A43F
:100CF000052D212F472D68E081E00E94600197E0DB
:100D0000971508F073942FEF83ED90E32150804006
:100D10009040E1F700C0000029E0821A9108A10884
:100D2000B10888E088169104A104B104E8F4E9A4AC
:100D3000FAA4052D212F462D68E082E00E94600173
:100D400097E0961508F0639489E190E00E94C6024E
:100D500088E70E94FD022FEF83ED90E32150804051
:100D60009040E1F700C0000060E080E00E94C00514
:100D700061E08FE091E00E94B00560E080E00E94B9
:100D8000C00561E0C6010E94B0050E94C50566CF9E
:100D9000991B79E004C0991F961708F0961B881FCD
:100DA0007A95C9F780950895EE0FFF1F0590F4918D
:100DB000E02D09940E944E0788F09F5798F0B92FB4
:100DC0009927B751B0F0E1F0660F771F881F991F80
:100DD0001AF0BA95C9F714C0B13091F00E946807B3
:100DE000B1E008950C946807672F782F8827B85FC3
:100DF00039F0B93FCCF3869577956795B395D9F7D8
:100E00003EF490958095709561957F4F8F4F9F4FE1
:100E10000895E89409C097FB3EF4909580957095ED
:100E200061957F4F8F4F9F4F9923A9F0F92F96E936
:100E3000BB279395F695879577956795B795F111AB
:100E4000F8CFFAF4BB0F11F460FF1BC06F5F7F4F48
:100E50008F4F9F4F16C0882311F096E911C077235A
:100E600021F09EE8872F762F05C0662371F096E863
:100E7000862F70E060E02AF09A95660F771F881F32
:100E8000DAF7880F9695879597F9089557FD90584A
:100E9000440F551F59F05F3F71F04795880F97FB3E
:100EA000991F61F09F3F79F08795089512161306F8
:100EB0001406551FF2CF4695F1DF08C01616170627
:100EC0001806991FF1CF869571056105089408955C
:100ED000E894BB2766277727CB0197F908950E94EE
:100EE00082070C94F3070E94E50738F00E94EC0794
:100EF00020F0952311F00C94DC070C94E2071124E8
:100F00000C9469070E94460770F3959FC1F3950FF3
:100F100050E0551F629FF001729FBB27F00DB11D7D
:100F2000639FAA27F00DB11DAA1F649F6627B00D0D
:100F3000A11D661F829F2227B00DA11D621F739FF6
:100F4000B00DA11D621F839FA00D611D221F749F04
:100F50003327A00D611D231F849F600D211D822F4B
:100F6000762F6A2F11249F5750409AF0F1F0882372
:100F70004AF0EE0FFF1FBB1F661F771F881F91509F
:100F80005040A9F79E3F510580F00C94DC070C946B
:100F900069075F3FE4F3983ED4F3869577956795AC
:100FA000B795F795E7959F5FC1F7FE2B880F911DC9
:100FB0009695879597F9089597F99F6780E870E06F
:100FC00060E008959FEF80EC089500240A941616BF
:100FD000170618060906089500240A941216130627
:100FE000140605060895092E0394000C11F48823B5
:100FF00052F0BB0F40F4BF2B11F460FF04C06F5FD1
:101000007F4F8F4F9F4F0895BB274A3031F499236C
:1010100022F4BDE2909581959F4F0C941008BB2758
:10102000FB015527AA27880F991FAA1FA41710F0A4
:10103000A41B83955051B9F7A05DAA3308F0A95DB0
:10104000A193009779F7B111B1931192CB010C9450
:101050002908DC01FC01672F71917723E1F73297B2
:1010600004C07C916D9370836291AE17BF07C8F383
:061070000895F894FFCF83
:101076005354415254002E003A00202020202020B4
:041086002020200006
:00000001FF
