:100000000C942B010C9448010C9448010C94480169
:100010000C9448010C9448010C9448010C9448013C
:100020000C9448010C9448010C9448010C9448012C
:100030000C9448010C9448010C9448010C9448011C
:100040000C9448010C9448010C9407020C9435025E
:100050000C9448010C9448010C9448010C944801FC
:100060000C9448010C944801970399039B039D034A
:100070009F03A603AD03000000000000005F000026
:100080000007000700147F147F14242A7F2A1223FC
:100090001308646236495522500005030000001C15
:1000A0002241000041221C0014083E081408083EAA
:1000B00008080050300000080808080800606000C8
:1000C0000020100804023E5149453E00427F400096
:1000D00042615149462141454B311814127F102786
:1000E000454545393C4A49493001710905033649BE
:1000F000494936064949291E003636000000563661
:100100000000081422410014141414140041221495
:10011000080201510906324979413E7E1111117ED2
:100120007F494949363E414141227F4141221C7F5E
:10013000494949417F090909013E4149497A7F08F6
:1001400008087F00417F41002040413F017F0814A3
:1001500022417F404040407F020C027F7F04081014
:100160007F3E4141413E7F090909063E4151215EE2
:100170007F09192946464949493101017F01013F5B
:100180004040403F1F2040201F3F4038403F631405
:1001900008146307087008076151494543007F410F
:1001A000410002040810200041417F0004020102C6
:1001B0000440404040400001020400205454547860
:1001C0007F484444383844444420384444487F38C5
:1001D00054545418087E0901020C5252523E7F08B2
:1001E00004047800447D40002040443D007F1028F6
:1001F000440000417F40007C041804787C0804041B
:100200007838444444387C14141408081414187CB6
:100210007C080404084854545420043F4440203CC3
:100220004040207C1C2040201C3C4030403C442866
:100230001028440C5050503C4464544C4400083640
:10024000410000007F00000041360800100808103F
:1002500008000000000011241FBECFEFD8E0DEBF71
:10026000CDBF11E0A0E0B1E0EAE0FFE002C0059000
:100270000D92A031B107D9F723E0A0E1B1E001C0B0
:100280001D92AF34B207E1F70E9451050C94830729
:100290000C9400000F931F93F801841768F0962FB9
:1002A000921B621720F4882311F0945C8150841B08
:1002B0008083918381E001C080E01F910F910895B8
:1002C000CF92DF92EF92FF920F931F93CF93DF9322
:1002D000CDB7DEB728970FB6F894DEBF0FBECDBFFF
:1002E000C82ED42E822F902F411125C0F7012083D4
:1002F00001834AE0BE016F5F7F4F802F90E00E9434
:100300004E07F70180814AE0BE016C5F7F4F90E0AD
:100310000E944E076AE080E00E94110561E080E0E3
:1003200091E00E94010560E08EE10E94110561E00C
:1003300088E091E047C0461708F05AC08E01095F77
:100340001F4FF70121814081692F0E944A010D2D25
:1003500010E0C801880F991FE80EF91E8F81F70180
:100360008083888581834AE0BE016F5F7F4F90E084
:100370000E944E07F70180814AE0BE016C5F7F4F0B
:1003800090E00E944E07F1E0CF1221C00F5F1F4F97
:10039000000F802F880F880F080F602F80E00E94C9
:1003A0001105602F80E00E94110561E0CE010496E6
:1003B0000E94010561E08EE091E00E94010561E08C
:1003C000CE0101960E9401050E94160511C082E02F
:1003D000C812FACF0F5F1F4F000F802F880F880FB2
:1003E000080F602F88E20E941105602F88E2DBCFA2
:1003F00028960FB6F894DEBF0FBECDBFDF91CF9128
:100400001F910F91FF90EF90DF90CF9008951F9272
:100410000F920FB60F9211242F938F939F93EF9308
:10042000FF938091C0009091C6008C71E091120101
:10043000EF5FEF7120911101E21739F0E0931201A3
:10044000F0E0EB5EFE4F908301C082E090911001DE
:10045000892B80931001FF91EF919F918F912F91A4
:100460000F900FBE0F901F9018951F920F920FB60E
:100470000F9211248F939F93EF93FF939091140108
:1004800080911301981769F0E0911301EF5FEF710C
:10049000E0931301F0E0EB5CFE4F80818093C60097
:1004A00005C08091C1008F7D8093C100FF91EF91C5
:1004B0009F918F910F900FBE0F901F9018951092E3
:1004C000140110921301109212011092110197FF62
:1004D00003C022E02093C00090789093C5008093E1
:1004E000C40088E98093C10086E08093C20008952B
:1004F00090911201809111019817A9F0909111012A
:100500009F5F9F71E92FF0E0EB5EFE4F20818091AD
:100510001001909311011092100190E0982F8827FC
:10052000820F911D089580E091E00895909114014B
:100530009F5F9F71209113019217E1F3E92FF0E083
:10054000EB5CFE4F8083909314018091C100806228
:100550008093C1000895CF93DF93EC0189918823A4
:1005600019F00E949602FACFDF91CF910895CF93B0
:10057000DF93FC018491EF012196882321F00E94F2
:100580009602FE01F7CFDF91CF91089587B18F7C5E
:1005900087B988B1806388B9E9EBF0E080818C7F0E
:1005A000808388E98093B800089594EA9093BC0012
:1005B0009091BC0097FFFCCF8093BB0084E88093B0
:1005C000BC008091BC0087FFFCCF9091B900987F60
:1005D000983119F081E0903409F480E00895809317
:1005E000BB0084E88093BC008091BC0087FFFCCFF7
:1005F000089584EC8093BC008091BC0087FFFCCF01
:100600008091BB00089584E88093BC008091BC0079
:1006100087FFFCCF8091BB00089584E98093BC00E4
:100620000895811131C06330F9F050F4662379F0F8
:10063000613039F585B58B7F85BD85B582600FC08A
:10064000653041F06630E9F485B5846013C085B546
:100650008B7F10C085B5846085BD85B58D7F85BDD8
:1006600085B58E7F85BD089585B58B7F85BD85B5A4
:10067000826003C085BD85B58D7F85BD85B58160F0
:10068000F1CF85B58B7FE8CF813009F044C063306E
:10069000D1F068F4662399F0613069F580918100AA
:1006A0008B7F809381008091810082602CC06530B7
:1006B00099F0663001F580918100846011C08091CD
:1006C00081008B7F0DC0809181008B7F80938100A2
:1006D00080918100826009C08091810084600EC099
:1006E00080938100809181008D7F80938100809133
:1006F000810081600DC0809181008B7F809381009B
:10070000809181008D7F80938100809181008E7F18
:10071000809381000895862F90E08730910548F5F9
:10072000FC01EC5CFF4F8091B1000C941E068B7FA6
:1007300007C08B7F0CC08B7F11C084601DC084609C
:100740008093B1008091B1008D7F0DC08460809353
:10075000B1008091B100826014C084608093B100C8
:100760008091B10082608093B1008091B10081607E
:100770000DC08091B1008B7F8093B1008091B1005A
:100780008D7F8093B1008091B1008E7F8093B10006
:10079000089581110CC080916E00662321F06130B4
:1007A00011F4816001C08E7F80936E0008958130C6
:1007B00061F480916F00662321F0613011F4816053
:1007C00001C08E7F80936F00089580917000662332
:1007D00021F0613011F4816001C08E7F8093700040
:1007E00008952998662311F02B9A01C02B9827E0D1
:1007F00030E090E0AC01022E02C0559547950A9476
:10080000E2F740FF02C02C9A01C02C982D9A2D9837
:100810002150310978F7299A089560E00C94F1038A
:10082000CF93DF93219A229A239A249A259A2A9A7F
:10083000299A8FE39CE90197F1F700C000002A98FC
:100840009FEF2AE683E0915020408040E1F700C00E
:1008500000002A9A299881E20E940D0483E10E94F7
:100860000D0486E00E940D0482EC0E940D0480E2DB
:100870000E940D0489E00E940D0480E80E940D048E
:1008800080E40E940D04C8EFD1E061E080E00E94A6
:10089000F1032197D1F788E00E940D048CE0DF91ED
:1008A000CF910C940D0480E80E940D0480E40E9416
:1008B0000D0410924D0310924E03E5E5F1E0119204
:1008C00083E0ED34F807D9F70895811102C084E27E
:1008D00001C080E20C940D04962F969596959695FE
:1008E000E82FF0E084E5989FE00DF11D1124EB5A0C
:1008F000FE4F677081E090E001C0880F6A95EAF7CB
:10090000442319F09081892B03C08095908189231D
:1009100080830895BF92CF92DF92EF92FF920F9360
:100920001F93CF93DF93D62E95E0699FE0011124AA
:1009300097E0699F80011124B12C082E000C990BBF
:10094000809725E0289F7001299FF00C11248B2DA2
:1009500090E08C179D0754F5C12C8C2D90E08017EA
:10096000910714F58B2D6D2D0E941206F701E80FEB
:10097000F11DEA58FF4FE491F0E08C2D0E94120621
:1009800002C0F595E7958A95E2F760914E03809154
:100990004D036C0DE0FF02C041E001C040E08B0D53
:1009A0000E946C04C394D9CFB394D1CF80914D03EE
:1009B00091E0980F8D2D880F880F8D0D890F84354C
:1009C00018F480934D030BC010924D0380914E0399
:1009D0008F5F97E0D99E800D112480934E03809104
:1009E0004E03803320F010924D0310924E03DF919E
:1009F000CF911F910F91FF90EF90DF90CF90BF901C
:100A000008951F93CF93DF93162FEC0189918823CC
:100A100021F0612F0E948A04F9CFDF91CF911F91BD
:100A2000089580934D0360934E030895CF93DF9311
:100A300080E80E940D0480E40E940D04C5E5D1E029
:100A400061E089910E94F10383E0CD34D807C1F7BA
:100A5000DF91CF910895529A4C9A08958AE08A9531
:100A6000F1F700C05A9A85E38A95F1F700005A9889
:100A700060E070E0CB0120E04C9B06C06F5F7F4FD1
:100A80008F4F9F4F21E0F8CF2223A9F30E945306F6
:100A900027EE3AE34DE05CE30E94B9060E9424068B
:100AA0000895CF93DF93CDB7DEB76A970FB6F8946A
:100AB000DEBF0FBECDBF0E9410040E9453040E94EF
:100AC000C6020E942B05FE013996DE0111966E01C9
:100AD00021E1C20ED11CEF8BF88FA98FBA8F108243
:100AE0001C92118211961C92119732961296EC1557
:100AF000FD05A9F7612C712C10E081E08E8B9FEF32
:100B000021EE84E0915020408040E1F700C00000D9
:100B10000E942E054B015C014AE0B601C4010E940F
:100B20004E0780ED0E94D50280E00E94EF020E94F5
:100B30000D0381ED0E94D5020E940303082F282E89
:100B4000312C412C512C0E940D030F70D201C10198
:100B500024E0B695A795979587952A95D1F7502EBD
:100B60002AE0829F500C11248BE3581641F051105B
:100B700008C09E89992329F01F5F1E8A02C021E0C8
:100B80002E8B89E088169104A104B104B0F4EF889B
:100B9000F88C052D212F472D64E081E00E94600133
:100BA00093E0971508F073942FEF83ED90E32150B5
:100BB00080409040E1F700C0000029E0821A9108CF
:100BC000A108B10888E088169104A104B104B0F42A
:100BD000E98CFA8C052D212F462D64E082E00E94DD
:100BE000600193E0961508F063942FEF83ED90E396
:100BF000215080409040E1F700C0000060E080E0BC
:100C00000E94110561E084E091E00E94010560E02E
:100C100080E00E94110561E0C6010E9401050E946A
:100C200016056DCF991B79E004C0991F961708F03F
:100C3000961B881F7A95C9F780950895EE0FFF1FC0
:100C40000590F491E02D09940E94980688F09F5732
:100C500098F0B92F9927B751B0F0E1F0660F771FE0
:100C6000881F991F1AF0BA95C9F714C0B13091F0D6
:100C70000E94B206B1E008950C94B206672F782F57
:100C80008827B85F39F0B93FCCF38695779567959B
:100C9000B395D9F73EF490958095709561957F4F07
:100CA0008F4F9F4F0895E89409C097FB3EF49095AD
:100CB0008095709561957F4F8F4F9F4F9923A9F035
:100CC000F92F96E9BB279395F695879577956795C4
:100CD000B795F111F8CFFAF4BB0F11F460FF1BC008
:100CE0006F5F7F4F8F4F9F4F16C0882311F096E99B
:100CF00011C0772321F09EE8872F762F05C0662349
:100D000071F096E8862F70E060E02AF09A95660F01
:100D1000771F881FDAF7880F9695879597F90895BA
:100D200057FD9058440F551F59F05F3F71F047959C
:100D3000880F97FB991F61F09F3F79F08795089581
:100D4000121613061406551FF2CF4695F1DF08C0A0
:100D5000161617061806991FF1CF869571056105BD
:100D600008940895E894BB2766277727CB0197F965
:100D700008950E94CC060C943D070E942F0738F07E
:100D80000E94360720F0952311F00C9426070C944E
:100D90002C0711240C94B3060E94900670F3959FC3
:100DA000C1F3950F50E0551F629FF001729FBB2762
:100DB000F00DB11D639FAA27F00DB11DAA1F649FFE
:100DC0006627B00DA11D661F829F2227B00DA11DB1
:100DD000621F739FB00DA11D621F839FA00D611D37
:100DE000221F749F3327A00D611D231F849F600D58
:100DF000211D822F762F6A2F11249F5750409AF081
:100E0000F1F088234AF0EE0FFF1FBB1F661F771F0C
:100E1000881F91505040A9F79E3F510580F00C94D7
:100E200026070C94B3065F3FE4F3983ED4F386950F
:100E300077956795B795F795E7959F5FC1F7FE2B77
:100E4000880F911D9695879597F9089597F99F6753
:100E500080E870E060E008959FEF80EC0895002442
:100E60000A941616170618060906089500240A940F
:100E700012161306140605060895092E0394000C95
:100E800011F4882352F0BB0F40F4BF2B11F460FF24
:100E900004C06F5F7F4F8F4F9F4F0895BB274A302D
:100EA00031F4992322F4BDE2909581959F4F0C94E3
:100EB0005A07BB27FB015527AA27880F991FAA1F8E
:100EC000A41710F0A41B83955051B9F7A05DAA3365
:100ED00008F0A95DA193009779F7B111B193119230
:100EE000CB010C947307DC01FC01672F7191772310
:100EF000E1F7329704C07C916D9370836291AE17D5
:0A0F0000BF07C8F30895F894FFCF6F
:100F0A0020202020202020005354415254003A002F
:00000001FF
