:100000000C943B000C9458000C9458000C9458002D
:100010000C9458000C9458000C9458000C94580000
:100020000C9458000C9458000C9458000C945800F0
:100030000C9458000C94A2000C9458000C94580096
:100040000C9458000C9458000C94C6000C94F400C6
:100050000C9458000C9458000C9458000C945800C0
:100060000C9458000C945800560258025A025C0234
:100070005E0265026C0211241FBECFEFD8E0DEBF26
:10008000CDBF11E0A0E0B1E0E2E0F6E002C00590F3
:100090000D92AC33B107D9F721E0ACE3B1E001C078
:1000A0001D92A238B207E1F70E94B0020C94FF0241
:1000B0000C9400001F93CF93DF9300D01F92CDB715
:1000C000DEB7809100019091010182309105B9F075
:1000D0008330910509F1019741F580913C0187FD3D
:1000E0002AC040E1BE016F5F7F4F90E00E94CA02CC
:1000F000CE0101960E946A0182E090E018C08091D2
:100100003C01880F0E949401182F0E94CC0111110C
:1001100007C083E090E00BC088E391E00E946A0191
:1001200080913C018F5F80933C0181E090E090934F
:100130000101809300010F900F900F90DF91CF91FC
:100140001F9108951F920F920FB60F9211242F93B3
:100150003F934F935F936F937F938F939F93AF934F
:10016000BF93EF93FF930E945A00FF91EF91BF91CD
:10017000AF919F918F917F916F915F914F913F913F
:100180002F910F900FBE0F901F9018951F920F92F6
:100190000FB60F9211242F938F939F93EF93FF939A
:1001A0008091C0009091C6008C71E0913F01EF5F9B
:1001B000EF7120913E01E21739F0E0933F01F0E04A
:1001C000EE5BFE4F908301C082E090913D01892B50
:1001D00080933D01FF91EF919F918F912F910F900F
:1001E0000FBE0F901F9018951F920F920FB60F928F
:1001F00011248F939F93EF93FF93909141018091EE
:100200004001981769F0E0914001EF5FEF71E093D2
:100210004001F0E0EE59FE4F80818093C60005C09A
:100220008091C1008F7D8093C100FF91EF919F91DC
:100230008F910F900FBE0F901F9018951092410153
:100240001092400110923F0110923E0197FF03C0AF
:1002500022E02093C00090789093C5008093C40062
:1002600088E98093C10086E08093C2000895909150
:100270003F0180913E019817A9F090913E019F5F48
:100280009F71E92FF0E0EE5BFE4F208180913D01F0
:1002900090933E0110923D0190E0982F8827820FA5
:1002A000911D089580E091E00895909141019F5F34
:1002B0009F71209140019217E1F3E92FF0E0EE5990
:1002C000FE4F8083909341018091C10080628093B2
:1002D000C1000895CF93DF93EC018991882319F031
:1002E0000E945501FACFDF91CF910895CF93DF930C
:1002F000FC018491EF012196882321F00E94550191
:10030000FE01F7CFDF91CF91089587B18F7C87B938
:1003100088B1806388B9E9EBF0E080818C7F8083CD
:1003200088E98093B800089594EA9093BC00909176
:10033000BC0097FFFCCF8093BB0084E88093BC0097
:100340008091BC0087FFFCCF9091B900987F9831D5
:1003500019F081E0903409F480E008958093BB00A7
:1003600084E88093BC008091BC0087FFFCCF089597
:1003700084EC8093BC008091BC0087FFFCCF80910F
:10038000BB00089584E88093BC008091BC0087FF87
:10039000FCCF8091BB00089584E98093BC00089550
:1003A000811131C06330F9F050F4662379F0613087
:1003B00039F585B58B7F85BD85B582600FC0653009
:1003C00041F06630E9F485B5846013C085B58B7F54
:1003D00010C085B5846085BD85B58D7F85BD85B52B
:1003E0008E7F85BD089585B58B7F85BD85B582607F
:1003F00003C085BD85B58D7F85BD85B58160F1CF95
:1004000085B58B7FE8CF813009F044C06330D1F0EF
:1004100068F4662399F0613069F5809181008B7FE3
:10042000809381008091810082602CC0653099F0BA
:10043000663001F580918100846011C08091810057
:100440008B7F0DC0809181008B7F80938100809194
:100450008100826009C08091810084600EC0809319
:100460008100809181008D7F809381008091810047
:1004700081600DC0809181008B7F8093810080918D
:1004800081008D7F80938100809181008E7F809399
:1004900081000895862F90E08730910548F5FC0192
:1004A000EC5CFF4F8091B1000C94C4028B7F07C0BD
:1004B0008B7F0CC08B7F11C084601DC084608093D3
:1004C000B1008091B1008D7F0DC084608093B10038
:1004D0008091B100826014C084608093B1008091EB
:1004E000B10082608093B1008091B10081600DC045
:1004F0008091B1008B7F8093B1008091B1008D7F9E
:100500008093B1008091B1008E7F8093B1000895F7
:1005100081110CC080916E00662321F0613011F4CE
:10052000816001C08E7F80936E000895813061F4F8
:1005300080916F00662321F0613011F4816001C069
:100540008E7F80936F00089580917000662321F064
:10055000613011F4816001C08E7F80937000089536
:1005600087E690E00E941E010E94850161E081E023
:100570000E94880261E081E00E94D001789482E0CC
:1005800091E00E946A01FFCFEE0FFF1F0590F491EA
:10059000E02D0994BB274A3031F4992322F4BDE2BF
:1005A000909581959F4F0C94D602BB27FB01552750
:1005B000AA27880F991FAA1FA41710F0A41B8395C0
:1005C0005051B9F7A05DAA3308F0A95DA193009737
:1005D00079F7B111B1931192CB010C94EF02DC01C8
:1005E000FC01672F71917723E1F7329704C07C916A
:1005F0006D9370836291AE17BF07C8F30895F894A6
:02060000FFCF2A
:1006020001000D0A2020202020302020312020321D
:10061200202033202034202035202036202037206F
:1006220020382020392020612020622020632020D1
:0C0632006420206520206600204F4B0053
:00000001FF
