:100000000C943B000C9458000C9458000C9458002D
:100010000C9458000C9458000C9458000C94580000
:100020000C9458000C9458000C9458000C945800F0
:100030000C9458000C945A000C9458000C945800DE
:100040000C9458000C9458000C9437020C946502E0
:100050000C9458000C946F000C9458000C945800A9
:100060000C9458000C9458007C037E038003820398
:1000700084038B03920311241FBECFEFD8E0DEBFB1
:10008000CDBF11E0A0E0B1E0EEEBF8E002C00590DA
:100090000D92A838B107D9F721E0A8E8B1E001C076
:1000A0001D92AD3CB207E1F70E94D6030C945D04AB
:1000B0000C9400001F920F920FB60F9211248F9391
:1000C000EF93FF93EAE7F0E0808180648083FF9103
:1000D000EF918F910F900FBE0F901F9018951F9268
:1000E0000F920FB60F9211240F931F932F933F93EC
:1000F0004F935F936F937F938F939F93AF93BF9330
:10010000EF93FF93CF93DF9300D000D0CDB7DEB74E
:1001100000917800109179004AE0BE016F5F7F4F37
:10012000C8010E94280460E080E00E94BF0183E1D2
:1001300091E00E94DB0160E080E00E94BF01CE01FF
:1001400001960E94DB0161E002331105F0F480E0CA
:100150000E94BF018FE091E00E94DB0161E080E03E
:100160000E94BF0188E191E00E94DB01CE0101966F
:100170000E94DB028EE191E00E94DB0289E291E0C5
:100180000E94DB0281E391E065C006391105B0F4FD
:1001900080E00E94BF018FE091E00E94DB0161E0FE
:1001A00080E00E94BF0186E491E00E94DB01CE0165
:1001B00001960E94DB0289E491E04CC00C3281E0A0
:1001C0001807B0F480E00E94BF018FE091E00E9428
:1001D000DB0161E080E00E94BF0181E591E00E94C7
:1001E000DB01CE0101960E94DB0286E591E032C080
:1001F000023C81E01807B0F480E00E94BF018FE06C
:1002000091E00E94DB0161E080E00E94BF0180E696
:1002100091E00E94DB01CE0101960E94DB0285E69F
:1002200091E018C00C3B1240C0F480E00E94BF0176
:100230008FE091E00E94DB0161E080E00E94BF015D
:100240008FE691E00E94DB01CE0101960E94DB0265
:1002500086E791E00E94DB020FC080E00E94BF01B0
:100260008FE091E00E94DB0161E080E00E94BF012D
:1002700082E891E00E94DB010F900F900F900F90A9
:10028000DF91CF91FF91EF91BF91AF919F918F91AE
:100290007F916F915F914F913F912F911F910F919E
:1002A0000F900FBE0F901F901895299A85E08A95A0
:1002B000F1F7000029980895CF93C82F662311F015
:1002C000289A01C02898549A559A569A579A5F9836
:1002D0005E985D985C98C7FD5F9AC6FD5E9AC5FD05
:1002E0005D9AC4FD5C9A0E9455015F985E985D9886
:1002F0005C98C3FD5F9AC2FD5E9AC1FD5D9AC0FD28
:100300005C9A0E9455015C9A5D9A5E9A5F9A8FE3AF
:100310009FE10197F1F700C00000CF910895289860
:100320005D9A5498559856985798299A85E08A95D9
:10033000F1F700004C9B02C080E101C080E04D99C4
:1003400080624E9980644F998068299895E09A95CB
:10035000F1F70000299A95E09A95F1F700004C9981
:1003600081604D9982604E9984604F998860299888
:10037000089560E00C945C0161E00C945C016111F3
:1003800002C0805801C080540C94B9010E948F01B2
:1003900087FDFCCF85E18A95F1F700000E948F016F
:1003A00090E0089581E00C94B90182E00C94B901C9
:1003B00061E00C945C01CF93DF93EC018991882379
:1003C00019F00E94D801FACFDF91CF910895CF9311
:1003D000DF93FC018491EF012196882321F00E9494
:1003E000D801FE01F7CFDF91CF910895CF93C82FA9
:1003F000209A559A219A549A559A569A579A8FEF5D
:1004000099EF0197F1F700C000005D9A5C9A0E9495
:1004100055018FE19EE40197F1F700C000000E94B2
:1004200055018FEF90E00197F1F700C000000E94A6
:1004300055018FEF90E00197F1F700C000005C9844
:100440000E9455018FEF90E00197F1F700C0000086
:1004500088E20E94B90188E00E94B9010E94D2019D
:1004600086E00E94B9018C2FCF910C94B9011F92A4
:100470000F920FB60F9211242F938F939F93EF93A8
:10048000FF938091C0009091C6008C71E0918A0129
:10049000EF5FEF7120918901E21739F0E0938A0153
:1004A000F0E0E357FE4F908301C082E09091880115
:1004B000892B80938801FF91EF919F918F912F91CC
:1004C0000F900FBE0F901F9018951F920F920FB6AE
:1004D0000F9211248F939F93EF93FF9390918C0130
:1004E00080918B01981769F0E0918B01EF5FEF71BC
:1004F000E0938B01F0E0E355FE4F80818093C600CE
:1005000005C08091C1008F7D8093C100FF91EF9164
:100510009F918F910F900FBE0F901F901895109282
:100520008C0110928B0110928A011092890197FF21
:1005300003C022E02093C00090789093C500809380
:10054000C40088E98093C10086E08093C2000895CA
:1005500090918A01809189019817A9F09091890161
:100560009F5F9F71E92FF0E0E357FE4F208180915C
:100570008801909389011092880190E0982F882734
:10058000820F911D089580E091E0089590918C0173
:100590009F5F9F7120918B019217E1F3E92FF0E0AB
:1005A000E355FE4F808390938C018091C10080625F
:1005B0008093C1000895CF93DF93EC018991882344
:1005C00019F00E94C602FACFDF91CF910895CF9320
:1005D000DF93FC018491EF012196882321F00E9492
:1005E000C602FE01F7CFDF91CF910895811131C08E
:1005F0006330F9F050F4662379F0613039F585B550
:100600008B7F85BD85B582600FC0653041F0663057
:10061000E9F485B5846013C085B58B7F10C085B5BE
:10062000846085BD85B58D7F85BD85B58E7F85BD93
:10063000089585B58B7F85BD85B5826003C085BD76
:1006400085B58D7F85BD85B58160F1CF85B58B7F03
:10065000E8CF813009F044C06330D1F068F46623FC
:1006600099F0613069F5809181008B7F80938100E2
:100670008091810082602CC0653099F0663001F570
:1006800080918100846011C0809181008B7F0DC0BA
:10069000809181008B7F80938100809181008260B6
:1006A00009C08091810084600EC080938100809198
:1006B00081008D7F809381008091810081600DC0D9
:1006C000809181008B7F80938100809181008D7F5C
:1006D00080938100809181008E7F809381000895B6
:1006E000862F90E08730910548F5FC01EC5CFF4FC8
:1006F0008091B1000C9422048B7F07C08B7F0CC0CB
:100700008B7F11C084601DC084608093B100809194
:10071000B1008D7F0DC084608093B1008091B100E5
:10072000826014C084608093B1008091B1008260C7
:100730008093B1008091B10081600DC08091B100C3
:100740008B7F8093B1008091B1008D7F8093B10049
:100750008091B1008E7F8093B100089581110CC00B
:1007600080916E00662321F0613011F4816001C038
:100770008E7F80936E000895813061F480916F00C8
:10078000662321F0613011F4816001C08E7F809377
:100790006F00089580917000662321F0613011F49C
:1007A000816001C08E7F8093700008958CE00E946C
:1007B000F60180917C008F7780937C0080917C0093
:1007C000806480937C0080917C008E7F80937C008D
:1007D00080917C008D7F80937C0080917C008B7F5A
:1007E00080937C0080917C00877F80937C00809147
:1007F0007A00806880937A0080917A00816080938B
:100800007A0080917A00826080937A0080917A00E9
:10081000846080937A0080917A00886080937A0067
:1008200063E081E00E94F60261E081E00E94AE0395
:1008300087E690E00E948F02789480E091E00E9429
:10084000DB02FFCFEE0FFF1F0590F491E02D09941E
:10085000BB274A3031F4992322F4BDE2909581956B
:100860009F4F0C943404BB27FB015527AA27880F00
:10087000991FAA1FA41710F0A41B83955051B9F714
:10088000A05DAA3308F0A95DA193009779F7B11193
:10089000B1931192CB010C944D04DC01FC01672F44
:1008A00071917723E1F7329704C07C916D93708347
:0E08B0006291AE17BF07C8F30895F894FFCF0A
:1008BE00554152542074657374696E670D0A002099
:1008CE002020202020202000524947485400092093
:1008DE005249474854200A0D001B5B343B33326D9E
:1008EE00005468697320697320616C6C2047206125
:1008FE006E6420552E0055500009205550200A0DCB
:10090E0000444F574E000920444F574E200A0D0009
:10091E004C4546540009204C454654200A0D0053C0
:10092E00454C45435400092053454C454354200A39
:08093E000D004E4F4E45000074
:00000001FF
