:100000000C943B000C9458000C9458000C9458002D
:100010000C9458000C9458000C9458000C94580000
:100020000C9458000C9458000C9458000C945800F0
:100030000C9458000C94C5000C9458000C94580073
:100040000C9458000C9458000C94EA000C9418017D
:100050000C9458000C9458000C9458000C945800C0
:100060000C9458000C9458002F02310233023502D0
:1000700037023E02450211241FBECFEFD8E0DEBF9B
:10008000CDBF11E0A0E0B1E0E4E0F6E002C00590F1
:100090000D92A033B107D9F721E0A0E3B1E001C090
:1000A0001D92A937B207E1F70E94B3020C94000336
:1000B0000C940000CF93DF9300D000D01F92CDB7F7
:1000C000DEB7809100019091010182309105C1F16C
:1000D00018F40197E9F04BC083309105B1F1049712
:1000E00009F045C0809130014AE0BE016F5F7F4F4B
:1000F00090E00E94CB0287E091E00E948E01CE0149
:1001000001960E948E0180913001809331012FC0B1
:1001100080913201909133018431910518F482E08D
:1001200090E027C08436910540F5449731F4109251
:10013000310182E091E00E948E0183E090E019C0DD
:10014000809131010E94890204C0809131010E9496
:100150009802809330018091320190913301019691
:10016000909333018093320184E090E002C081E0FB
:1001700090E090930101809300010F900F900F90F9
:100180000F900F90DF91CF9108951F920F920FB6AD
:100190000F9211242F933F934F935F936F937F930D
:1001A0008F939F93AF93BF93EF93FF9385E00E944C
:1001B000AC02FF91EF91BF91AF919F918F917F9191
:1001C0006F915F914F913F912F910F900FBE0F90C4
:1001D0001F9018951F920F920FB60F9211242F9314
:1001E0008F939F93EF93FF938091C0009091C600EF
:1001F0008C71E0913601EF5FEF7120913501E217CC
:1002000039F0E0933601F0E0E75CFE4F908301C0E7
:1002100082E090913401892B80933401FF91EF911A
:100220009F918F912F910F900FBE0F901F90189557
:100230001F920F920FB60F9211248F939F93EF93FB
:10024000FF939091380180913701981769F0E09100
:100250003701EF5FEF71E0933701F0E0E75AFE4FAF
:1002600080818093C60005C08091C1008F7D8093FE
:10027000C100FF91EF919F918F910F900FBE0F9052
:100280001F90189510923801109237011092360184
:100290001092350197FF03C022E02093C0009078B0
:1002A0009093C5008093C40088E98093C10086E0E4
:1002B0008093C2000895909136018091350198177E
:1002C000A9F0909135019F5F9F71E92FF0E0E75C05
:1002D000FE4F2081809134019093350110923401BA
:1002E00090E0982F8827820F911D089580E091E07B
:1002F0000895909138019F5F9F7120913701921767
:10030000E1F3E92FF0E0E75AFE4F80839093380144
:100310008091C10080628093C1000895CF93DF93E4
:10032000EC018991882319F00E947901FACFDF91BD
:10033000CF910895CF93DF93FC018491EF01219633
:10034000882321F00E947901FE01F7CFDF91CF9140
:100350000895811131C06330F9F050F4662379F0CB
:10036000613039F585B58B7F85BD85B582600FC05D
:10037000653041F06630E9F485B5846013C085B519
:100380008B7F10C085B5846085BD85B58D7F85BDAB
:1003900085B58E7F85BD089585B58B7F85BD85B577
:1003A000826003C085BD85B58D7F85BD85B58160C3
:1003B000F1CF85B58B7FE8CF813009F044C0633041
:1003C000D1F068F4662399F0613069F5809181007D
:1003D0008B7F809381008091810082602CC065308A
:1003E00099F0663001F580918100846011C08091A0
:1003F00081008B7F0DC0809181008B7F8093810075
:1004000080918100826009C08091810084600EC06B
:1004100080938100809181008D7F80938100809105
:10042000810081600DC0809181008B7F809381006D
:10043000809181008D7F80938100809181008E7FEB
:10044000809381000895862F90E08730910548F5CC
:10045000FC01EC5CFF4F8091B1000C94C5028B7FD6
:1004600007C08B7F0CC08B7F11C084601DC084606F
:100470008093B1008091B1008D7F0DC08460809326
:10048000B1008091B100826014C084608093B1009B
:100490008091B10082608093B1008091B100816051
:1004A0000DC08091B1008B7F8093B1008091B1002D
:1004B0008D7F8093B1008091B1008E7F8093B100D9
:1004C000089581110CC080916E00662321F0613087
:1004D00011F4816001C08E7F80936E000895813099
:1004E00061F480916F00662321F0613011F4816026
:1004F00001C08E7F80936F00089580917000662305
:1005000021F0613011F4816001C08E7F8093700012
:1005100008950F931F9383FB00F982FB10F90127C5
:10052000880F009500FB80F98F701F910F9108953F
:100530000F931F9387FB00F985FB10F9012784FBBC
:1005400010F9012783FB10F90127880F009500FBA4
:1005500080F91F910F9108950F931F932D9A2D9855
:100560001F910F91089587E690E00E94420161E09B
:1005700081E00E94A90161E081E00E94610278941B
:1005800089E091E00E948E01FFCFEE0FFF1F0590E2
:10059000F491E02D0994BB274A3031F4992322F4D9
:1005A000BDE2909581959F4F0C94D702BB27FB012C
:1005B0005527AA27880F991FAA1FA41710F0A41B5C
:1005C00083955051B9F7A05DAA3308F0A95DA193B6
:1005D000009779F7B111B1931192CB010C94F0020D
:1005E000DC01FC01672F71917723E1F7329704C09A
:1005F0007C916D9370836291AE17BF07C8F3089525
:04060000F894FFCF9C
:1006040001000D0A0D0A0020000D0A2D2D2D4C4667
:1006140053522070736575646F2D72616E646F6DD3
:100624002067656E657261746F722D2D2D0D0A0041
:00000001FF
