:100000000C9434000C943E000C943E000C943E0082
:100010000C943E000C943E000C943E000C943E0068
:100020000C943E000C943E000C943E000C943E0058
:100030000C943E000C943E000C943E000C943E0048
:100040000C943E000C943E000C943E000C943E0038
:100050000C943E000C943E000C943E000C943E0028
:100060000C943E000C943E0011241FBECFEFD8E04C
:10007000DEBFCDBF0E9488000C94AC000C94000041
:10008000FC01408121E030E001C0220F6A95EAF7CF
:10009000242B20830895FC01408121E030E001C041
:1000A000220F6A95EAF7242720830895FC018081B6
:1000B00021E030E001C0220F6A95EAF7413011F4E7
:1000C000282B02C02095282320830895FC0142910B
:1000D00021E030E001C0220F6A95EAF72095342F25
:1000E00032233083FC013081232320830895FC01D7
:1000F000429121E030E001C0220F6A95EAF7322FE9
:10010000309534233083FC013081232B20830895E4
:1001100065E084E290E00E94400060E084E290E0CC
:100120000E94400062E08BE290E00E9477002D98F0
:1001300028984A9B02C065E001C060E085E290E03B
:100140000E944B002FEF84E39CE0215080409040C0
:0C015000E1F700C00000EDCFF894FFCFF5
:00000001FF
