:100000000C943B000C9458000C9458000C9458002D
:100010000C9458000C9458000C9458000C94580000
:100020000C9458000C9458000C9458000C945800F0
:100030000C9458000C945A000C9458000C945800DE
:100040000C9458000C9458000C94F3000C9421016B
:100050000C9458000C9458000C9458000C945800C0
:100060000C9458000C945800830285028702890280
:100070008B029202990211241FBECFEFD8E0DEBF9F
:10008000CDBF11E0A0E0B1E0E4E5F6E002C00590EC
:100090000D92A830B107D9F721E0A8E0B1E001C086
:1000A0001D92AD34B207E1F70E94DD020C942803E3
:1000B0000C9400001F920F920FB60F9211240F9311
:1000C0001F932F933F934F935F936F937F938F93E0
:1000D0009F93AF93BF93EF93FF93CF93DF93CDB7EE
:1000E000DEB72697DEBFCDBF88EB0E94C10182E05C
:1000F0000E94DB010E94F90189EB0E94C1010E946C
:10010000E501082F0E94EF01182F0E94F90140E13C
:10011000BE016C5F7F4F802F90E00E94F302CE0102
:1001200004960E9497018EE20E94820140E1BE0186
:100130006C5F7F4F812F90E00E94F302CE01049606
:100140000E94970184E091E00E94970180ED0E9457
:10015000C10180E00E94DB010E94F90181ED0E9453
:10016000C1010E94E501182F0E94EF01082F0E9493
:10017000F90140E1BE016F5F7F4F802F90E00E9448
:10018000F302CE0101960E9497018AE30E94820148
:1001900040E1BE016F5F7F4F812F90E00E94F3022C
:1001A000CE0101960E94970182E091E00E949701A2
:1001B00026960FB6F894DEBF0FBECDBFDF91CF916C
:1001C000FF91EF91BF91AF919F918F917F916F912F
:1001D0005F914F913F912F911F910F910F900FBE03
:1001E0000F901F9018951F920F920FB60F92112427
:1001F0002F938F939F93EF93FF938091C0009091E3
:10020000C6008C71E0910A01EF5FEF712091090146
:10021000E21739F0E0930A01F0E0E35FFE4F9083CC
:1002200001C082E090910801892B80930801FF9121
:10023000EF919F918F912F910F900FBE0F901F9074
:1002400018951F920F920FB60F9211248F939F93C0
:10025000EF93FF9390910C0180910B01981769F037
:10026000E0910B01EF5FEF71E0930B01F0E0E35DD4
:10027000FE4F80818093C60005C08091C1008F7DB4
:100280008093C100FF91EF919F918F910F900FBECE
:100290000F901F90189510920C0110920B01109264
:1002A0000A011092090197FF03C022E02093C000C9
:1002B00090789093C5008093C40088E98093C10032
:1002C00086E08093C200089590910A01809109010F
:1002D0009817A9F0909109019F5F9F71E92FF0E0B5
:1002E000E35FFE4F208180910801909309011092F5
:1002F000080190E0982F8827820F911D089580E0D3
:1003000091E0089590910C019F5F9F7120910B01E6
:100310009217E1F3E92FF0E0E35DFE4F80839093C5
:100320000C018091C10080628093C1000895CF9339
:10033000DF93EC018991882319F00E948201FACFA2
:10034000DF91CF910895CF93DF93FC018491EF016A
:100350002196882321F00E948201FE01F7CFDF91D0
:10036000CF91089587B18F7C87B988B1806388B9B0
:10037000E9EBF0E080818C7F808388E98093B8008E
:10038000089594EA9093BC009091BC0097FFFCCF35
:100390008093BB0084E88093BC008091BC0087FF01
:1003A000FCCF9091B900987F983119F081E090349A
:1003B00009F480E008958093BB0084E88093BC003A
:1003C0008091BC0087FFFCCF089584EC8093BC0033
:1003D0008091BC0087FFFCCF8091BB00089584E82A
:1003E0008093BC008091BC0087FFFCCF8091BB0054
:1003F000089584E98093BC000895811131C0633071
:10040000F9F050F4662379F0613039F585B58B7FCA
:1004100085BD85B582600FC0653041F06630E9F476
:1004200085B5846013C085B58B7F10C085B58460A9
:1004300085BD85B58D7F85BD85B58E7F85BD0895CC
:1004400085B58B7F85BD85B5826003C085BD85B5CB
:100450008D7F85BD85B58160F1CF85B58B7FE8CF78
:10046000813009F044C06330D1F068F4662399F01C
:10047000613069F5809181008B7F8093810080914C
:10048000810082602CC0653099F0663001F5809162
:100490008100846011C0809181008B7F0DC08091AC
:1004A00081008B7F8093810080918100826009C0F0
:1004B0008091810084600EC08093810080918100D2
:1004C0008D7F809381008091810081600DC080913B
:1004D00081008B7F80938100809181008D7F80934C
:1004E0008100809181008E7F809381000895862F06
:1004F00090E08730910548F5FC01EC5CFF4F80915E
:10050000B1000C94ED028B7F07C08B7F0CC08B7FFA
:1005100011C084601DC084608093B1008091B100DF
:100520008D7F0DC084608093B1008091B1008260A6
:1005300014C084608093B1008091B1008260809388
:10054000B1008091B10081600DC08091B1008B7FBE
:100550008093B1008091B1008D7F8093B100809134
:10056000B1008E7F8093B100089581110CC08091FD
:100570006E00662321F0613011F4816001C08E7F2E
:1005800080936E000895813061F480916F0066233E
:1005900021F0613011F4816001C08E7F80936F0083
:1005A000089580917000662321F0613011F481601C
:1005B00001C08E7F80937000089587E690E00E94CE
:1005C0004B010E94B20161E081E00E94B50261E04E
:1005D00081E00E94FD017894FFCFEE0FFF1F059090
:1005E000F491E02D0994BB274A3031F4992322F489
:1005F000BDE2909581959F4F0C94FF02BB27FB01B4
:100600005527AA27880F991FAA1FA41710F0A41B0B
:1006100083955051B9F7A05DAA3308F0A95DA19365
:10062000009779F7B111B1931192CB010C94180393
:10063000DC01FC01672F71917723E1F7329704C049
:100640007C916D9370836291AE17BF07C8F30895D4
:04065000F894FFCF4C
:0806540001000D0A0D0A00006F
:00000001FF
