:100000000C9434000C943E000C943E000C943E0082
:100010000C943E000C943E000C943E000C943E0068
:100020000C943E000C943E000C943E000C943E0058
:100030000C943E000C943E000C943E000C943E0048
:100040000C943E000C943E000C943E000C943E0038
:100050000C943E000C943E000C943E000C943E0028
:100060000C943E000C943E0011241FBECFEFD8E04C
:10007000DEBFCDBF0E9440000C945A000C940000DB
:10008000259A209A52985A9A2D98289891E020E221
:100090004A9B03C085B1822702C085B1892785B9F3
:1000A0003FEF44E38CE0315040408040E1F700C036
:0800B0000000EECFF894FFCF31
:00000001FF
