:100000000C943B000C9458000C9458000C9458002D
:100010000C9458000C9458000C9458000C94580000
:100020000C9458000C9458000C9458000C945800F0
:100030000C9458000C945A000C9458000C945800DE
:100040000C9458000C9458000C9458000C945800D0
:100050000C9458000C9458000C9458000C945800C0
:100060000C9458000C945800030205020702090280
:100070000B021202190211241FBECFEFD8E0DEBF1F
:10008000CDBF11E0A0E0B1E0ECEBF5E002C00590DF
:100090000D92AA31B107D9F721E0AAE1B1E001C080
:1000A0001D92AF31B207E1F70E945D020C94DC02B1
:1000B0000C9400001F920F920FB60F9211242F93F1
:1000C0003F934F935F936F937F938F939F93AF93E0
:1000D000BF93EF93FF9380911A014AE06BE171E0C7
:1000E00090E00E94A70260E089E00E9405018BE198
:1000F00091E00E94210180911A018F5F80931A0183
:10010000811108C060E08AE00E94050187E191E06A
:100110000E942101FF91EF91BF91AF919F918F912B
:100120007F916F915F914F913F912F910F900FBEF3
:100130000F901F901895299A85E08A95F1F7000095
:1001400029980895CF93C82F662311F0289A01C0EB
:100150002898549A559A569A579A5F985E985D983F
:100160005C98C7FD5F9AC6FD5E9AC5FD5D9AC4FDA9
:100170005C9A0E949B005F985E985D985C98C3FDB6
:100180005F9AC2FD5E9AC1FD5D9AC0FD5C9A0E94B5
:100190009B005C9A5D9A5E9A5F9A8FE39FE101975C
:1001A000F1F700C00000CF91089528985D9A549807
:1001B000559856985798299A85E08A95F1F7000046
:1001C0004C9B02C080E101C080E04D9980624E9955
:1001D00080644F998068299895E09A95F1F700001E
:1001E000299A95E09A95F1F700004C9981604D9914
:1001F00082604E9984604F9988602998089560E0E4
:100200000C94A20061E00C94A200611102C080581D
:1002100001C080540C94FF000E94D50087FDFCCFE4
:1002200085E18A95F1F700000E94D50090E00895DD
:1002300081E00C94FF0082E00C94FF0061E00C94DC
:10024000A200CF93DF93EC018991882319F00E94DB
:100250001E01FACFDF91CF910895CF93DF93FC0178
:100260008491EF012196882321F00E941E01FE0156
:10027000F7CFDF91CF910895CF93C82F209A559A49
:10028000219A549A559A569A579A8FEF99EF019757
:10029000F1F700C000005D9A5C9A0E949B008FE11C
:1002A0009EE40197F1F700C000000E949B008FEFD1
:1002B00090E00197F1F700C000000E949B008FEFD3
:1002C00090E00197F1F700C000005C980E949B004D
:1002D0008FEF90E00197F1F700C0000088E20E94E4
:1002E000FF0088E00E94FF000E94180186E00E9443
:1002F000FF008C2FCF910C94FF00811131C063302F
:10030000F9F050F4662379F0613039F585B58B7FCB
:1003100085BD85B582600FC0653041F06630E9F477
:1003200085B5846013C085B58B7F10C085B58460AA
:1003300085BD85B58D7F85BD85B58E7F85BD0895CD
:1003400085B58B7F85BD85B5826003C085BD85B5CC
:100350008D7F85BD85B58160F1CF85B58B7FE8CF79
:10036000813009F044C06330D1F068F4662399F01D
:10037000613069F5809181008B7F8093810080914D
:10038000810082602CC0653099F0663001F5809163
:100390008100846011C0809181008B7F0DC08091AD
:1003A00081008B7F8093810080918100826009C0F1
:1003B0008091810084600EC08093810080918100D3
:1003C0008D7F809381008091810081600DC080913C
:1003D00081008B7F80938100809181008D7F80934D
:1003E0008100809181008E7F809381000895862F07
:1003F00090E08730910548F5FC01EC5CFF4F80915F
:10040000B1000C94A1028B7F07C08B7F0CC08B7F47
:1004100011C084601DC084608093B1008091B100E0
:100420008D7F0DC084608093B1008091B1008260A7
:1004300014C084608093B1008091B1008260809389
:10044000B1008091B10081600DC08091B1008B7FBF
:100450008093B1008091B1008D7F8093B100809135
:10046000B1008E7F8093B100089581110CC08091FE
:100470006E00662321F0613011F4816001C08E7F2F
:1004800080936E000895813061F480916F0066233F
:1004900021F0613011F4816001C08E7F80936F0084
:1004A000089580917000662321F0613011F481601D
:1004B00001C08E7F809370000895CF93DF93CDB7F6
:1004C000DEB760970FB6F894DEBF0FBECDBF8CE0ED
:1004D0000E943C0180E191E00E94210161E081E005
:1004E0000E947D0161E081E00E94350280E1E0E050
:1004F000F1E0DE01119601900D928A95E1F780E41A
:100500000E94FF008E010F5F1F4F7E0181E1E80E08
:10051000F11CF80181918F010E9402010E151F0547
:10052000C1F761E080E00E94050180E00E941E01A9
:1005300061E081E00E94050181E00E941E01789443
:10054000FFCFEE0FFF1F0590F491E02D0994BB271C
:100550004A3031F4992322F4BDE2909581959F4F62
:100560000C94B302BB27FB015527AA27880F991FBC
:10057000AA1FA41710F0A41B83955051B9F7A05DD2
:10058000AA3308F0A95DA193009779F7B111B1934F
:100590001192CB010C94CC02DC01FC01672F71910C
:1005A0007723E1F7329704C07C916D937083629159
:0C05B000AE17BF07C8F30895F894FFCF02
:1005BC0000000A000E0A000000131300001A1B00B2
:0A05CC00436F756E74657220200005
:00000001FF
